{
  "abi": [
    {
      "inputs": [],
      "stateMutability": "nonpayable",
      "type": "constructor"
    },
    {
      "anonymous": false,
      "inputs": [
        {
          "indexed": true,
          "internalType": "address",
          "name": "previousOwner",
          "type": "address"
        },
        {
          "indexed": true,
          "internalType": "address",
          "name": "newOwner",
          "type": "address"
        }
      ],
      "name": "OwnershipTransferred",
      "type": "event"
    },
    {
      "anonymous": false,
      "inputs": [
        {
          "indexed": false,
          "internalType": "uint256",
          "name": "proposalId",
          "type": "uint256"
        }
      ],
      "name": "ProposalRegistered",
      "type": "event"
    },
    {
      "anonymous": false,
      "inputs": [
        {
          "indexed": false,
          "internalType": "address",
          "name": "voter",
          "type": "address"
        },
        {
          "indexed": false,
          "internalType": "uint256",
          "name": "proposalId",
          "type": "uint256"
        }
      ],
      "name": "Voted",
      "type": "event"
    },
    {
      "anonymous": false,
      "inputs": [
        {
          "indexed": false,
          "internalType": "address",
          "name": "voterAddress",
          "type": "address"
        }
      ],
      "name": "VoterRegistered",
      "type": "event"
    },
    {
      "anonymous": false,
      "inputs": [
        {
          "indexed": false,
          "internalType": "enum Voting.WorkflowStatus",
          "name": "previousStatus",
          "type": "uint8"
        },
        {
          "indexed": false,
          "internalType": "enum Voting.WorkflowStatus",
          "name": "newStatus",
          "type": "uint8"
        }
      ],
      "name": "WorkflowStatusChange",
      "type": "event"
    },
    {
      "inputs": [
        {
          "internalType": "string",
          "name": "_desc",
          "type": "string"
        }
      ],
      "name": "addProposal",
      "outputs": [],
      "stateMutability": "nonpayable",
      "type": "function"
    },
    {
      "inputs": [
        {
          "internalType": "address",
          "name": "_addr",
          "type": "address"
        }
      ],
      "name": "addVoter",
      "outputs": [],
      "stateMutability": "nonpayable",
      "type": "function"
    },
    {
      "inputs": [],
      "name": "endProposalsRegistering",
      "outputs": [],
      "stateMutability": "nonpayable",
      "type": "function"
    },
    {
      "inputs": [],
      "name": "endVotingSession",
      "outputs": [],
      "stateMutability": "nonpayable",
      "type": "function"
    },
    {
      "inputs": [
        {
          "internalType": "uint256",
          "name": "_id",
          "type": "uint256"
        }
      ],
      "name": "getOneProposal",
      "outputs": [
        {
          "components": [
            {
              "internalType": "string",
              "name": "description",
              "type": "string"
            },
            {
              "internalType": "uint256",
              "name": "voteCount",
              "type": "uint256"
            }
          ],
          "internalType": "struct Voting.Proposal",
          "name": "",
          "type": "tuple"
        }
      ],
      "stateMutability": "view",
      "type": "function"
    },
    {
      "inputs": [],
      "name": "getProposalArray",
      "outputs": [
        {
          "components": [
            {
              "internalType": "string",
              "name": "description",
              "type": "string"
            },
            {
              "internalType": "uint256",
              "name": "voteCount",
              "type": "uint256"
            }
          ],
          "internalType": "struct Voting.Proposal[]",
          "name": "",
          "type": "tuple[]"
        }
      ],
      "stateMutability": "view",
      "type": "function"
    },
    {
      "inputs": [
        {
          "internalType": "address",
          "name": "_addr",
          "type": "address"
        }
      ],
      "name": "getVoter",
      "outputs": [
        {
          "components": [
            {
              "internalType": "bool",
              "name": "isRegistered",
              "type": "bool"
            },
            {
              "internalType": "bool",
              "name": "hasVoted",
              "type": "bool"
            },
            {
              "internalType": "uint256",
              "name": "votedProposalId",
              "type": "uint256"
            }
          ],
          "internalType": "struct Voting.Voter",
          "name": "",
          "type": "tuple"
        }
      ],
      "stateMutability": "view",
      "type": "function"
    },
    {
      "inputs": [],
      "name": "owner",
      "outputs": [
        {
          "internalType": "address",
          "name": "",
          "type": "address"
        }
      ],
      "stateMutability": "view",
      "type": "function"
    },
    {
      "inputs": [],
      "name": "renounceOwnership",
      "outputs": [],
      "stateMutability": "nonpayable",
      "type": "function"
    },
    {
      "inputs": [],
      "name": "setSampleProposals",
      "outputs": [],
      "stateMutability": "nonpayable",
      "type": "function"
    },
    {
      "inputs": [],
      "name": "setSampleProposalsForTallyingVotes",
      "outputs": [],
      "stateMutability": "nonpayable",
      "type": "function"
    },
    {
      "inputs": [
        {
          "internalType": "uint256",
          "name": "_id",
          "type": "uint256"
        }
      ],
      "name": "setVote",
      "outputs": [],
      "stateMutability": "nonpayable",
      "type": "function"
    },
    {
      "inputs": [
        {
          "internalType": "enum Voting.WorkflowStatus",
          "name": "_status",
          "type": "uint8"
        }
      ],
      "name": "setWorkflowStatus",
      "outputs": [],
      "stateMutability": "nonpayable",
      "type": "function"
    },
    {
      "inputs": [],
      "name": "startProposalsRegistering",
      "outputs": [],
      "stateMutability": "nonpayable",
      "type": "function"
    },
    {
      "inputs": [],
      "name": "startVotingSession",
      "outputs": [],
      "stateMutability": "nonpayable",
      "type": "function"
    },
    {
      "inputs": [],
      "name": "tallyVotes",
      "outputs": [],
      "stateMutability": "nonpayable",
      "type": "function"
    },
    {
      "inputs": [
        {
          "internalType": "address",
          "name": "newOwner",
          "type": "address"
        }
      ],
      "name": "transferOwnership",
      "outputs": [],
      "stateMutability": "nonpayable",
      "type": "function"
    },
    {
      "inputs": [],
      "name": "winningProposalID",
      "outputs": [
        {
          "internalType": "uint256",
          "name": "",
          "type": "uint256"
        }
      ],
      "stateMutability": "view",
      "type": "function"
    },
    {
      "inputs": [],
      "name": "workflowStatus",
      "outputs": [
        {
          "internalType": "enum Voting.WorkflowStatus",
          "name": "",
          "type": "uint8"
        }
      ],
      "stateMutability": "view",
      "type": "function"
    }
  ],
  "bytecode": {
    "object": "0x608060405234801561001057600080fd5b5061001a336102fd565b604080516060808201835260008083526020808401828152848601838152738858db2541a6127277494b1b402115567e942d528452600480845295517fe91db8b264e227de40e191218be2a2f8942e3a14d95b139aa36df1096110ed2080549351151561010090810261ff0019931515841661ffff19968716171790915591517fe91db8b264e227de40e191218be2a2f8942e3a14d95b139aa36df1096110ed215587518087018952858152808501868152818a0187815273a5e7bcc085f059ba3f6ec2a62aec0521d9b3015d885289875291517f43506b1bc7d17ff0e69b0999aaed9583e09bfd1c8d6c75bca13fd65eab2a8a078054925115158602911515851692871692909217179055517f43506b1bc7d17ff0e69b0999aaed9583e09bfd1c8d6c75bca13fd65eab2a8a085587518087018952858152808501868152818a018781527356f4e98e0335f169c5b318197e1ed5d9165d14cc885289875291517ff2e244b76a57dc1e316d0ca26d5d42e49582c85ad4d7c923e3023df15aca69458054925115158602911515851692871692909217179055517ff2e244b76a57dc1e316d0ca26d5d42e49582c85ad4d7c923e3023df15aca69465587518087018952858152808501868152818a01878152735ba9d25e32e165c67c60fd3c8edcbfa7f8cd9130885289875291517f37dfb3f5b26bd8b1bc2a34dd08086e412a34ab21589fe76a70cce587979d304c8054925115158602911515851692871692909217179055517f37dfb3f5b26bd8b1bc2a34dd08086e412a34ab21589fe76a70cce587979d304d558751958601885284865285840185815297860185815273bc784bfbd5b43ad5030a6367de49ca5b6e312d939095529590925292517fcf65ad1f84a807894bff73dd6a3d82599ebb747df6de345c79ceb8fe8dd32d358054965115159092029015159094169490921693909317919091179055517fcf65ad1f84a807894bff73dd6a3d82599ebb747df6de345c79ceb8fe8dd32d365561034d565b600080546001600160a01b038381166001600160a01b0319831681178455604051919092169283917f8be0079c531659141344cd1fd0a4f28419497f9722a3daafe3b4186f6b6457e09190a35050565b6119ef8061035c6000396000f3fe608060405234801561001057600080fd5b50600436106101215760003560e01c8063a2788cce116100ad578063c88af42f11610071578063c88af42f14610217578063d4f50f981461021f578063ee74c67814610258578063f2fde38b14610260578063f4ab9adf1461027357600080fd5b8063a2788cce146101bb578063a7bfab16146101db578063ae8e64ac146101e3578063bdc01431146101f8578063c7038a4e1461020f57600080fd5b8063549f2485116100f4578063549f24851461015e578063577740b114610166578063715018a6146101795780638da5cb5b14610181578063a1edffa2146101a157600080fd5b80631fe1580714610126578063230796ae146101305780632fdae3c514610143578063378a217814610156575b600080fd5b61012e610286565b005b61012e61013e366004611513565b6104ff565b61012e61015136600461152c565b6106ac565b61012e6108c3565b61012e6109ee565b61012e61017436600461159e565b610c4f565b61012e610c7e565b6000546040516001600160a01b0390911681526020015b60405180910390f35b6002546101ae9060ff1681565b60405161019891906115fe565b6101ce6101c9366004611513565b610c92565b604051610198919061166d565b61012e610da5565b6101eb610e1d565b6040516101989190611680565b61020160015481565b604051908152602001610198565b61012e610f20565b61012e611043565b61023261022d3660046116e2565b6110ee565b604080518251151581526020808401511515908201529181015190820152606001610198565b61012e611183565b61012e61026e3660046116e2565b611231565b61012e6102813660046116e2565b6112aa565b61028e6113da565b604080516080810182526018918101918252772a3434b99030903334b939ba103232b9b1b934b83a34b7b760411b60608201529081526000602082018190526003805460018101825591528151600290910260008051602061197a833981519152019081906102fd90826117aa565b50602091820151600191820155604080516080810182526019918101918252782a3434b990309039b2b1b7b732103232b9b1b934b83a34b7b760391b606082015290815260009281018390526003805492830181559092528151600290910260008051602061197a8339815191520190819061037990826117aa565b50602091820151600191820155604080516080810182526018918101918252772a3434b99030903a3434b932103232b9b1b934b83a34b7b760411b606082015290815260009281018390526003805492830181559092528151600290910260008051602061197a833981519152019081906103f490826117aa565b50602091820151600191820155604080516080810182526019918101918252782a3434b99030903337bab93a34103232b9b1b934b83a34b7b760391b606082015290815260009281018390526003805492830181559092528151600290910260008051602061197a8339815191520190819061047090826117aa565b506020918201516001918201556040805160808101825260189181019182527f546869732061206669667468206465736372697074696f6e0000000000000000606082015290815260009281018390526003805492830181559092528151600290910260008051602061197a833981519152019081906104f090826117aa565b50602082015181600101555050565b3360009081526004602052604090205460ff166105375760405162461bcd60e51b815260040161052e9061186a565b60405180910390fd5b600360025460ff166005811115610550576105506115c6565b1461056d5760405162461bcd60e51b815260040161052e90611896565b33600090815260046020526040902054610100900460ff1615156001036105cf5760405162461bcd60e51b8152602060048201526016602482015275165bdd481a185d9948185b1c9958591e481d9bdd195960521b604482015260640161052e565b60035481106106155760405162461bcd60e51b8152602060048201526012602482015271141c9bdc1bdcd85b081b9bdd08199bdd5b9960721b604482015260640161052e565b33600090815260046020526040902060018101829055805461ff001916610100179055600380548290811061064c5761064c6118d7565b60009182526020822060016002909202010180549161066a83611903565b909155505060408051338152602081018390527f4d99b957a2bc29a30ebd96a7be8e68fe50a3c701db28a91436490b7d53870ca491015b60405180910390a150565b3360009081526004602052604090205460ff166106db5760405162461bcd60e51b815260040161052e9061186a565b600160025460ff1660058111156106f4576106f46115c6565b146107415760405162461bcd60e51b815260206004820152601d60248201527f50726f706f73616c7320617265206e6f7420616c6c6f77656420796574000000604482015260640161052e565b60405160200161075c90602080825260009082015260400190565b60405160208183030381529060405280519060200120828260405160200161078592919061191c565b60405160208183030381529060405280519060200120036107f45760405162461bcd60e51b815260206004820152602360248201527f566f7573206e6520706f7576657a20706173206e65207269656e2070726f706f60448201526239b2b960e91b606482015260840161052e565b60408051808201909152606081526000602082015282828080601f01602080910402602001604051908101604052809392919081815260200183838082843760009201829052509385525050600380546001810182559252508151829160020260008051602061197a8339815191520190819061087190826117aa565b50602091909101516001918201556003547f92e393e9b54e2f801d3ea4beb0c5e71a21cc34a5d34b77d0fb8a3aa1650dc18f916108ad9161194b565b60405190815260200160405180910390a1505050565b6108cb6113da565b600460025460ff1660058111156108e4576108e46115c6565b146109445760405162461bcd60e51b815260206004820152602a60248201527f43757272656e7420737461747573206973206e6f7420766f74696e67207365736044820152691cda5bdb88195b99195960b21b606482015260840161052e565b6000805b6003548110156109b85760038281548110610965576109656118d7565b9060005260206000209060020201600101546003828154811061098a5761098a6118d7565b90600052602060002090600202016001015411156109a6578091505b806109b081611903565b915050610948565b5060018190556002805460ff1916600590811790915560405160008051602061199a833981519152916106a1916004919061195e565b6109f66113da565b610a0260036000611484565b6040805160808101825260079181019182526647454e4553495360c81b60608201529081526000602082018190526003805460018101825591528151600290910260008051602061197a83398151915201908190610a6090826117aa565b50602091820151600191820155604080516080810182526018918101918252772a3434b99030903334b939ba103232b9b1b934b83a34b7b760411b60608201529081529182018190526003805491820181556000528151600290910260008051602061197a83398151915201908190610ad990826117aa565b50602091820151600191820155604080516080810182526019918101918252782a3434b990309039b2b1b7b732103232b9b1b934b83a34b7b760391b60608201529081526004928101929092526003805491820181556000528151600290910260008051602061197a83398151915201908190610b5690826117aa565b50602091820151600191820155604080516080810182526018918101918252772a3434b99030903a3434b932103232b9b1b934b83a34b7b760411b60608201529081526003928101839052825491820183556000929092528151600290910260008051602061197a83398151915201908190610bd290826117aa565b50602091820151600191820155604080516080810182526019918101918252782a3434b99030903337bab93a34103232b9b1b934b83a34b7b760391b60608201529081526007928101929092526003805491820181556000528151600290910260008051602061197a8339815191520190819061047090826117aa565b610c576113da565b6002805482919060ff19166001836005811115610c7657610c766115c6565b021790555050565b610c866113da565b610c906000611434565b565b6040805180820190915260608152600060208201523360009081526004602052604090205460ff16610cd65760405162461bcd60e51b815260040161052e9061186a565b60038281548110610ce957610ce96118d7565b9060005260206000209060020201604051806040016040529081600082018054610d1290611721565b80601f0160208091040260200160405190810160405280929190818152602001828054610d3e90611721565b8015610d8b5780601f10610d6057610100808354040283529160200191610d8b565b820191906000526020600020905b815481529060010190602001808311610d6e57829003601f168201915b505050505081526020016001820154815250509050919050565b610dad6113da565b600360025460ff166005811115610dc657610dc66115c6565b14610de35760405162461bcd60e51b815260040161052e90611896565b6002805460ff1916600490811790915560405160008051602061199a83398151915291610e13916003919061195e565b60405180910390a1565b6060610e276113da565b6003805480602002602001604051908101604052809291908181526020016000905b82821015610f175783829060005260206000209060020201604051806040016040529081600082018054610e7c90611721565b80601f0160208091040260200160405190810160405280929190818152602001828054610ea890611721565b8015610ef55780601f10610eca57610100808354040283529160200191610ef5565b820191906000526020600020905b815481529060010190602001808311610ed857829003601f168201915b5050505050815260200160018201548152505081526020019060010190610e49565b50505050905090565b610f286113da565b600060025460ff166005811115610f4157610f416115c6565b14610fa05760405162461bcd60e51b815260206004820152602960248201527f5265676973746572696e672070726f706f73616c732063616e742062652073746044820152686172746564206e6f7760b81b606482015260840161052e565b6002805460ff19166001908117825560408051808201825260608152600060208083018290528351808501909452600784526647454e4553495360c81b9084015291815260038054938401815590915280519092839260008051602061197a83398151915291020190819061101590826117aa565b5060208201518160010155505060008051602061199a833981519152600060016040516106a192919061195e565b61104b6113da565b600160025460ff166005811115611064576110646115c6565b146110c25760405162461bcd60e51b815260206004820152602860248201527f5265676973746572696e672070726f706f73616c7320686176656e74207374616044820152671c9d1959081e595d60c21b606482015260840161052e565b6002805460ff19168117815560405160008051602061199a83398151915291610e13916001919061195e565b604080516060810182526000808252602080830182905282840182905233825260049052919091205460ff166111365760405162461bcd60e51b815260040161052e9061186a565b506001600160a01b03166000908152600460209081526040918290208251606081018452815460ff8082161515835261010090910416151592810192909252600101549181019190915290565b61118b6113da565b6002805460ff1660058111156111a3576111a36115c6565b146112045760405162461bcd60e51b815260206004820152602b60248201527f5265676973746572696e672070726f706f73616c73207068617365206973206e60448201526a1bdd08199a5b9a5cda195960aa1b606482015260840161052e565b6002805460ff19166003908117825560405160008051602061199a83398151915292610e1392909161195e565b6112396113da565b6001600160a01b03811661129e5760405162461bcd60e51b815260206004820152602660248201527f4f776e61626c653a206e6577206f776e657220697320746865207a65726f206160448201526564647265737360d01b606482015260840161052e565b6112a781611434565b50565b6112b26113da565b600060025460ff1660058111156112cb576112cb6115c6565b146113245760405162461bcd60e51b815260206004820152602360248201527f566f7465727320726567697374726174696f6e206973206e6f74206f70656e206044820152621e595d60ea1b606482015260840161052e565b6001600160a01b03811660009081526004602052604090205460ff1615156001036113865760405162461bcd60e51b8152602060048201526012602482015271105b1c9958591e481c9959da5cdd195c995960721b604482015260640161052e565b6001600160a01b038116600081815260046020908152604091829020805460ff1916600117905590519182527fb6be2187d059cc2a55fe29e0e503b566e1e0f8c8780096e185429350acffd3dd91016106a1565b6000546001600160a01b03163314610c905760405162461bcd60e51b815260206004820181905260248201527f4f776e61626c653a2063616c6c6572206973206e6f7420746865206f776e6572604482015260640161052e565b600080546001600160a01b038381166001600160a01b0319831681178455604051919092169283917f8be0079c531659141344cd1fd0a4f28419497f9722a3daafe3b4186f6b6457e09190a35050565b50805460008255600202906000526020600020908101906112a791905b808211156114c55760006114b582826114c9565b50600060018201556002016114a1565b5090565b5080546114d590611721565b6000825580601f106114e5575050565b601f0160209004906000526020600020908101906112a791905b808211156114c557600081556001016114ff565b60006020828403121561152557600080fd5b5035919050565b6000806020838503121561153f57600080fd5b823567ffffffffffffffff8082111561155757600080fd5b818501915085601f83011261156b57600080fd5b81358181111561157a57600080fd5b86602082850101111561158c57600080fd5b60209290920196919550909350505050565b6000602082840312156115b057600080fd5b8135600681106115bf57600080fd5b9392505050565b634e487b7160e01b600052602160045260246000fd5b600681106115fa57634e487b7160e01b600052602160045260246000fd5b9052565b6020810161160c82846115dc565b92915050565b6000815160408452805180604086015260005b818110156116425760208184018101516060888401015201611625565b50600060608287010152602084015160208601526060601f19601f8301168601019250505092915050565b6020815260006115bf6020830184611612565b6000602080830181845280855180835260408601915060408160051b870101925083870160005b828110156116d557603f198886030184526116c3858351611612565b945092850192908501906001016116a7565b5092979650505050505050565b6000602082840312156116f457600080fd5b81356001600160a01b03811681146115bf57600080fd5b634e487b7160e01b600052604160045260246000fd5b600181811c9082168061173557607f821691505b60208210810361175557634e487b7160e01b600052602260045260246000fd5b50919050565b601f8211156117a557600081815260208120601f850160051c810160208610156117825750805b601f850160051c820191505b818110156117a15782815560010161178e565b5050505b505050565b815167ffffffffffffffff8111156117c4576117c461170b565b6117d8816117d28454611721565b8461175b565b602080601f83116001811461180d57600084156117f55750858301515b600019600386901b1c1916600185901b1785556117a1565b600085815260208120601f198616915b8281101561183c5788860151825594840194600190910190840161181d565b508582101561185a5787850151600019600388901b60f8161c191681555b5050505050600190811b01905550565b6020808252601290820152712cb7ba93b932903737ba1030903b37ba32b960711b604082015260600190565b60208082526021908201527f566f74696e672073657373696f6e20686176656e7420737461727465642079656040820152601d60fa1b606082015260800190565b634e487b7160e01b600052603260045260246000fd5b634e487b7160e01b600052601160045260246000fd5b600060018201611915576119156118ed565b5060010190565b60208152816020820152818360408301376000818301604090810191909152601f909201601f19160101919050565b8181038181111561160c5761160c6118ed565b6040810161196c82856115dc565b6115bf60208301846115dc56fec2575a0e9e593c00f959f8c92f12db2869c3395a3b0502d05e2516446f71f85b0a97a4ee45751e2abf3e4fc8946939630b11b371ea8ae39ccdc3056e98f5cc3fa26469706673582212203c7a148cbe4b375799bf3e5222cc3b37da4ae6a5a14dfef92bc1651ef279478764736f6c63430008130033",
    "linkReferences": {}
  },
  "methodIdentifiers": {
    "addProposal(string)": "2fdae3c5",
    "addVoter(address)": "f4ab9adf",
    "endProposalsRegistering()": "c88af42f",
    "endVotingSession()": "a7bfab16",
    "getOneProposal(uint256)": "a2788cce",
    "getProposalArray()": "ae8e64ac",
    "getVoter(address)": "d4f50f98",
    "owner()": "8da5cb5b",
    "renounceOwnership()": "715018a6",
    "setSampleProposals()": "1fe15807",
    "setSampleProposalsForTallyingVotes()": "549f2485",
    "setVote(uint256)": "230796ae",
    "setWorkflowStatus(uint8)": "577740b1",
    "startProposalsRegistering()": "c7038a4e",
    "startVotingSession()": "ee74c678",
    "tallyVotes()": "378a2178",
    "transferOwnership(address)": "f2fde38b",
    "winningProposalID()": "bdc01431",
    "workflowStatus()": "a1edffa2"
  },
  "id": 1
}