{
  "contractName": "VotingMock",
  "abi": [
    {
      "inputs": [],
      "stateMutability": "nonpayable",
      "type": "constructor"
    },
    {
      "anonymous": false,
      "inputs": [
        {
          "indexed": true,
          "internalType": "address",
          "name": "previousOwner",
          "type": "address"
        },
        {
          "indexed": true,
          "internalType": "address",
          "name": "newOwner",
          "type": "address"
        }
      ],
      "name": "OwnershipTransferred",
      "type": "event"
    },
    {
      "anonymous": false,
      "inputs": [
        {
          "indexed": false,
          "internalType": "uint256",
          "name": "proposalId",
          "type": "uint256"
        }
      ],
      "name": "ProposalRegistered",
      "type": "event"
    },
    {
      "anonymous": false,
      "inputs": [
        {
          "indexed": false,
          "internalType": "address",
          "name": "voter",
          "type": "address"
        },
        {
          "indexed": false,
          "internalType": "uint256",
          "name": "proposalId",
          "type": "uint256"
        }
      ],
      "name": "Voted",
      "type": "event"
    },
    {
      "anonymous": false,
      "inputs": [
        {
          "indexed": false,
          "internalType": "address",
          "name": "voterAddress",
          "type": "address"
        }
      ],
      "name": "VoterRegistered",
      "type": "event"
    },
    {
      "anonymous": false,
      "inputs": [
        {
          "indexed": false,
          "internalType": "enum Voting.WorkflowStatus",
          "name": "previousStatus",
          "type": "uint8"
        },
        {
          "indexed": false,
          "internalType": "enum Voting.WorkflowStatus",
          "name": "newStatus",
          "type": "uint8"
        }
      ],
      "name": "WorkflowStatusChange",
      "type": "event"
    },
    {
      "inputs": [
        {
          "internalType": "string",
          "name": "_desc",
          "type": "string"
        }
      ],
      "name": "addProposal",
      "outputs": [],
      "stateMutability": "nonpayable",
      "type": "function"
    },
    {
      "inputs": [
        {
          "internalType": "address",
          "name": "_addr",
          "type": "address"
        }
      ],
      "name": "addVoter",
      "outputs": [],
      "stateMutability": "nonpayable",
      "type": "function"
    },
    {
      "inputs": [],
      "name": "endProposalsRegistering",
      "outputs": [],
      "stateMutability": "nonpayable",
      "type": "function"
    },
    {
      "inputs": [],
      "name": "endVotingSession",
      "outputs": [],
      "stateMutability": "nonpayable",
      "type": "function"
    },
    {
      "inputs": [
        {
          "internalType": "uint256",
          "name": "_id",
          "type": "uint256"
        }
      ],
      "name": "getOneProposal",
      "outputs": [
        {
          "components": [
            {
              "internalType": "string",
              "name": "description",
              "type": "string"
            },
            {
              "internalType": "uint256",
              "name": "voteCount",
              "type": "uint256"
            }
          ],
          "internalType": "struct Voting.Proposal",
          "name": "",
          "type": "tuple"
        }
      ],
      "stateMutability": "view",
      "type": "function",
      "constant": true
    },
    {
      "inputs": [
        {
          "internalType": "address",
          "name": "_addr",
          "type": "address"
        }
      ],
      "name": "getVoter",
      "outputs": [
        {
          "components": [
            {
              "internalType": "bool",
              "name": "isRegistered",
              "type": "bool"
            },
            {
              "internalType": "bool",
              "name": "hasVoted",
              "type": "bool"
            },
            {
              "internalType": "uint256",
              "name": "votedProposalId",
              "type": "uint256"
            }
          ],
          "internalType": "struct Voting.Voter",
          "name": "",
          "type": "tuple"
        }
      ],
      "stateMutability": "view",
      "type": "function",
      "constant": true
    },
    {
      "inputs": [],
      "name": "owner",
      "outputs": [
        {
          "internalType": "address",
          "name": "",
          "type": "address"
        }
      ],
      "stateMutability": "view",
      "type": "function",
      "constant": true
    },
    {
      "inputs": [],
      "name": "renounceOwnership",
      "outputs": [],
      "stateMutability": "nonpayable",
      "type": "function"
    },
    {
      "inputs": [
        {
          "internalType": "uint256",
          "name": "_id",
          "type": "uint256"
        }
      ],
      "name": "setVote",
      "outputs": [],
      "stateMutability": "nonpayable",
      "type": "function"
    },
    {
      "inputs": [],
      "name": "startProposalsRegistering",
      "outputs": [],
      "stateMutability": "nonpayable",
      "type": "function"
    },
    {
      "inputs": [],
      "name": "startVotingSession",
      "outputs": [],
      "stateMutability": "nonpayable",
      "type": "function"
    },
    {
      "inputs": [],
      "name": "tallyVotes",
      "outputs": [],
      "stateMutability": "nonpayable",
      "type": "function"
    },
    {
      "inputs": [
        {
          "internalType": "address",
          "name": "newOwner",
          "type": "address"
        }
      ],
      "name": "transferOwnership",
      "outputs": [],
      "stateMutability": "nonpayable",
      "type": "function"
    },
    {
      "inputs": [],
      "name": "winningProposalID",
      "outputs": [
        {
          "internalType": "uint256",
          "name": "",
          "type": "uint256"
        }
      ],
      "stateMutability": "view",
      "type": "function",
      "constant": true
    },
    {
      "inputs": [],
      "name": "workflowStatus",
      "outputs": [
        {
          "internalType": "enum Voting.WorkflowStatus",
          "name": "",
          "type": "uint8"
        }
      ],
      "stateMutability": "view",
      "type": "function",
      "constant": true
    },
    {
      "inputs": [
        {
          "internalType": "enum Voting.WorkflowStatus",
          "name": "_status",
          "type": "uint8"
        }
      ],
      "name": "setWorkflowStatus",
      "outputs": [],
      "stateMutability": "nonpayable",
      "type": "function"
    },
    {
      "inputs": [],
      "name": "getProposalArray",
      "outputs": [
        {
          "components": [
            {
              "internalType": "string",
              "name": "description",
              "type": "string"
            },
            {
              "internalType": "uint256",
              "name": "voteCount",
              "type": "uint256"
            }
          ],
          "internalType": "struct Voting.Proposal[]",
          "name": "",
          "type": "tuple[]"
        }
      ],
      "stateMutability": "view",
      "type": "function",
      "constant": true
    },
    {
      "inputs": [],
      "name": "setSampleProposals",
      "outputs": [],
      "stateMutability": "nonpayable",
      "type": "function"
    },
    {
      "inputs": [],
      "name": "setSampleProposalsForTallyingVotes",
      "outputs": [],
      "stateMutability": "nonpayable",
      "type": "function"
    }
  ],
  "bytecode": "0x60806040523480156200001157600080fd5b5062000032620000266200040260201b60201c565b6200040a60201b60201c565b6040518060600160405280600015158152602001600015158152602001600081525060046000738858db2541a6127277494b1b402115567e942d5273ffffffffffffffffffffffffffffffffffffffff1673ffffffffffffffffffffffffffffffffffffffff16815260200190815260200160002060008201518160000160006101000a81548160ff02191690831515021790555060208201518160000160016101000a81548160ff02191690831515021790555060408201518160010155905050604051806060016040528060001515815260200160001515815260200160008152506004600073a5e7bcc085f059ba3f6ec2a62aec0521d9b3015d73ffffffffffffffffffffffffffffffffffffffff1673ffffffffffffffffffffffffffffffffffffffff16815260200190815260200160002060008201518160000160006101000a81548160ff02191690831515021790555060208201518160000160016101000a81548160ff0219169083151502179055506040820151816001015590505060405180606001604052806000151581526020016000151581526020016000815250600460007356f4e98e0335f169c5b318197e1ed5d9165d14cc73ffffffffffffffffffffffffffffffffffffffff1673ffffffffffffffffffffffffffffffffffffffff16815260200190815260200160002060008201518160000160006101000a81548160ff02191690831515021790555060208201518160000160016101000a81548160ff021916908315150217905550604082015181600101559050506040518060600160405280600015158152602001600015158152602001600081525060046000735ba9d25e32e165c67c60fd3c8edcbfa7f8cd913073ffffffffffffffffffffffffffffffffffffffff1673ffffffffffffffffffffffffffffffffffffffff16815260200190815260200160002060008201518160000160006101000a81548160ff02191690831515021790555060208201518160000160016101000a81548160ff02191690831515021790555060408201518160010155905050604051806060016040528060001515815260200160001515815260200160008152506004600073bc784bfbd5b43ad5030a6367de49ca5b6e312d9373ffffffffffffffffffffffffffffffffffffffff1673ffffffffffffffffffffffffffffffffffffffff16815260200190815260200160002060008201518160000160006101000a81548160ff02191690831515021790555060208201518160000160016101000a81548160ff02191690831515021790555060408201518160010155905050620004ce565b600033905090565b60008060009054906101000a900473ffffffffffffffffffffffffffffffffffffffff169050816000806101000a81548173ffffffffffffffffffffffffffffffffffffffff021916908373ffffffffffffffffffffffffffffffffffffffff1602179055508173ffffffffffffffffffffffffffffffffffffffff168173ffffffffffffffffffffffffffffffffffffffff167f8be0079c531659141344cd1fd0a4f28419497f9722a3daafe3b4186f6b6457e060405160405180910390a35050565b612ed480620004de6000396000f3fe608060405234801561001057600080fd5b50600436106101215760003560e01c8063a2788cce116100ad578063c88af42f11610071578063c88af42f1461025e578063d4f50f9814610268578063ee74c67814610298578063f2fde38b146102a2578063f4ab9adf146102be57610121565b8063a2788cce146101de578063a7bfab161461020e578063ae8e64ac14610218578063bdc0143114610236578063c7038a4e1461025457610121565b8063549f2485116100f4578063549f248514610172578063577740b11461017c578063715018a6146101985780638da5cb5b146101a2578063a1edffa2146101c057610121565b80631fe1580714610126578063230796ae146101305780632fdae3c51461014c578063378a217814610168575b600080fd5b61012e6102da565b005b61014a60048036038101906101459190611d5d565b6105dc565b005b61016660048036038101906101619190611def565b6108d7565b005b610170610b5a565b005b61017a610cc7565b005b61019660048036038101906101919190611e61565b61106f565b005b6101a06110a4565b005b6101aa6110b8565b6040516101b79190611ecf565b60405180910390f35b6101c86110e1565b6040516101d59190611f61565b60405180910390f35b6101f860048036038101906101f39190611d5d565b6110f4565b6040516102059190612058565b60405180910390f35b61021661125b565b005b610220611341565b60405161022d9190612179565b60405180910390f35b61023e611444565b60405161024b91906121aa565b60405180910390f35b61025c61144a565b005b6102666115c5565b005b610282600480360381019061027d91906121f1565b6116aa565b60405161028f919061227b565b60405180910390f35b6102a06117d2565b005b6102bc60048036038101906102b791906121f1565b6118b8565b005b6102d860048036038101906102d391906121f1565b61193b565b005b6102e2611ae4565b600360405180604001604052806040518060400160405280601881526020017f546869732061206669727374206465736372697074696f6e0000000000000000815250815260200160008152509080600181540180825580915050600190039060005260206000209060020201600090919091909150600082015181600001908161036d91906124d1565b50602082015181600101555050600360405180604001604052806040518060400160405280601981526020017f546869732061207365636f6e64206465736372697074696f6e00000000000000815250815260200160008152509080600181540180825580915050600190039060005260206000209060020201600090919091909150600082015181600001908161040591906124d1565b50602082015181600101555050600360405180604001604052806040518060400160405280601881526020017f546869732061207468697264206465736372697074696f6e0000000000000000815250815260200160008152509080600181540180825580915050600190039060005260206000209060020201600090919091909150600082015181600001908161049d91906124d1565b50602082015181600101555050600360405180604001604052806040518060400160405280601981526020017f54686973206120666f75727468206465736372697074696f6e00000000000000815250815260200160008152509080600181540180825580915050600190039060005260206000209060020201600090919091909150600082015181600001908161053591906124d1565b50602082015181600101555050600360405180604001604052806040518060400160405280601881526020017f546869732061206669667468206465736372697074696f6e000000000000000081525081526020016000815250908060018154018082558091505060019003906000526020600020906002020160009091909190915060008201518160000190816105cd91906124d1565b50602082015181600101555050565b600460003373ffffffffffffffffffffffffffffffffffffffff1673ffffffffffffffffffffffffffffffffffffffff16815260200190815260200160002060000160009054906101000a900460ff1661066b576040517f08c379a000000000000000000000000000000000000000000000000000000000815260040161066290612600565b60405180910390fd5b6003600581111561067f5761067e611eea565b5b600260009054906101000a900460ff1660058111156106a1576106a0611eea565b5b146106e1576040517f08c379a00000000000000000000000000000000000000000000000000000000081526004016106d890612692565b60405180910390fd5b60011515600460003373ffffffffffffffffffffffffffffffffffffffff1673ffffffffffffffffffffffffffffffffffffffff16815260200190815260200160002060000160019054906101000a900460ff16151503610777576040517f08c379a000000000000000000000000000000000000000000000000000000000815260040161076e906126fe565b60405180910390fd5b60038054905081106107be576040517f08c379a00000000000000000000000000000000000000000000000000000000081526004016107b59061276a565b60405180910390fd5b80600460003373ffffffffffffffffffffffffffffffffffffffff1673ffffffffffffffffffffffffffffffffffffffff168152602001908152602001600020600101819055506001600460003373ffffffffffffffffffffffffffffffffffffffff1673ffffffffffffffffffffffffffffffffffffffff16815260200190815260200160002060000160016101000a81548160ff021916908315150217905550600381815481106108745761087361278a565b5b90600052602060002090600202016001016000815480929190610896906127e8565b91905055507f4d99b957a2bc29a30ebd96a7be8e68fe50a3c701db28a91436490b7d53870ca433826040516108cc929190612830565b60405180910390a150565b600460003373ffffffffffffffffffffffffffffffffffffffff1673ffffffffffffffffffffffffffffffffffffffff16815260200190815260200160002060000160009054906101000a900460ff16610966576040517f08c379a000000000000000000000000000000000000000000000000000000000815260040161095d90612600565b60405180910390fd5b6001600581111561097a57610979611eea565b5b600260009054906101000a900460ff16600581111561099c5761099b611eea565b5b146109dc576040517f08c379a00000000000000000000000000000000000000000000000000000000081526004016109d3906128a5565b60405180910390fd5b6040516020016109eb906128eb565b604051602081830303815290604052805190602001208282604051602001610a14929190612947565b6040516020818303038152906040528051906020012003610a6a576040517f08c379a0000000000000000000000000000000000000000000000000000000008152600401610a61906129dd565b60405180910390fd5b610a72611c2e565b82828080601f016020809104026020016040519081016040528093929190818152602001838380828437600081840152601f19601f82011690508083019250505050505050816000018190525060038190806001815401808255809150506001900390600052602060002090600202016000909190919091506000820151816000019081610b0091906124d1565b506020820151816001015550507f92e393e9b54e2f801d3ea4beb0c5e71a21cc34a5d34b77d0fb8a3aa1650dc18f6001600380549050610b4091906129fd565b604051610b4d91906121aa565b60405180910390a1505050565b610b62611ae4565b60046005811115610b7657610b75611eea565b5b600260009054906101000a900460ff166005811115610b9857610b97611eea565b5b14610bd8576040517f08c379a0000000000000000000000000000000000000000000000000000000008152600401610bcf90612aa3565b60405180910390fd5b600080600090505b600380549050811015610c565760038281548110610c0157610c0061278a565b5b90600052602060002090600202016001015460038281548110610c2757610c2661278a565b5b9060005260206000209060020201600101541115610c43578091505b8080610c4e906127e8565b915050610be0565b50806001819055506005600260006101000a81548160ff02191690836005811115610c8457610c83611eea565b5b02179055507f0a97a4ee45751e2abf3e4fc8946939630b11b371ea8ae39ccdc3056e98f5cc3f60046005604051610cbc929190612ac3565b60405180910390a150565b610ccf611ae4565b60036000610cdd9190611c48565b600360405180604001604052806040518060400160405280600781526020017f47454e45534953000000000000000000000000000000000000000000000000008152508152602001600081525090806001815401808255809150506001900390600052602060002090600202016000909190919091506000820151816000019081610d6891906124d1565b50602082015181600101555050600360405180604001604052806040518060400160405280601881526020017f546869732061206669727374206465736372697074696f6e00000000000000008152508152602001600181525090806001815401808255809150506001900390600052602060002090600202016000909190919091506000820151816000019081610e0091906124d1565b50602082015181600101555050600360405180604001604052806040518060400160405280601981526020017f546869732061207365636f6e64206465736372697074696f6e000000000000008152508152602001600481525090806001815401808255809150506001900390600052602060002090600202016000909190919091506000820151816000019081610e9891906124d1565b50602082015181600101555050600360405180604001604052806040518060400160405280601881526020017f546869732061207468697264206465736372697074696f6e00000000000000008152508152602001600381525090806001815401808255809150506001900390600052602060002090600202016000909190919091506000820151816000019081610f3091906124d1565b50602082015181600101555050600360405180604001604052806040518060400160405280601981526020017f54686973206120666f75727468206465736372697074696f6e000000000000008152508152602001600781525090806001815401808255809150506001900390600052602060002090600202016000909190919091506000820151816000019081610fc891906124d1565b50602082015181600101555050600360405180604001604052806040518060400160405280601881526020017f546869732061206669667468206465736372697074696f6e0000000000000000815250815260200160008152509080600181540180825580915050600190039060005260206000209060020201600090919091909150600082015181600001908161106091906124d1565b50602082015181600101555050565b611077611ae4565b80600260006101000a81548160ff0219169083600581111561109c5761109b611eea565b5b021790555050565b6110ac611ae4565b6110b66000611b62565b565b60008060009054906101000a900473ffffffffffffffffffffffffffffffffffffffff16905090565b600260009054906101000a900460ff1681565b6110fc611c2e565b600460003373ffffffffffffffffffffffffffffffffffffffff1673ffffffffffffffffffffffffffffffffffffffff16815260200190815260200160002060000160009054906101000a900460ff1661118b576040517f08c379a000000000000000000000000000000000000000000000000000000000815260040161118290612600565b60405180910390fd5b6003828154811061119f5761119e61278a565b5b90600052602060002090600202016040518060400160405290816000820180546111c8906122f4565b80601f01602080910402602001604051908101604052809291908181526020018280546111f4906122f4565b80156112415780601f1061121657610100808354040283529160200191611241565b820191906000526020600020905b81548152906001019060200180831161122457829003601f168201915b505050505081526020016001820154815250509050919050565b611263611ae4565b6003600581111561127757611276611eea565b5b600260009054906101000a900460ff16600581111561129957611298611eea565b5b146112d9576040517f08c379a00000000000000000000000000000000000000000000000000000000081526004016112d090612692565b60405180910390fd5b6004600260006101000a81548160ff021916908360058111156112ff576112fe611eea565b5b02179055507f0a97a4ee45751e2abf3e4fc8946939630b11b371ea8ae39ccdc3056e98f5cc3f60036004604051611337929190612ac3565b60405180910390a1565b606061134b611ae4565b6003805480602002602001604051908101604052809291908181526020016000905b8282101561143b57838290600052602060002090600202016040518060400160405290816000820180546113a0906122f4565b80601f01602080910402602001604051908101604052809291908181526020018280546113cc906122f4565b80156114195780601f106113ee57610100808354040283529160200191611419565b820191906000526020600020905b8154815290600101906020018083116113fc57829003601f168201915b505050505081526020016001820154815250508152602001906001019061136d565b50505050905090565b60015481565b611452611ae4565b6000600581111561146657611465611eea565b5b600260009054906101000a900460ff16600581111561148857611487611eea565b5b146114c8576040517f08c379a00000000000000000000000000000000000000000000000000000000081526004016114bf90612b5e565b60405180910390fd5b6001600260006101000a81548160ff021916908360058111156114ee576114ed611eea565b5b02179055506114fb611c2e565b6040518060400160405280600781526020017f47454e455349530000000000000000000000000000000000000000000000000081525081600001819052506003819080600181540180825580915050600190039060005260206000209060020201600090919091909150600082015181600001908161157a91906124d1565b506020820151816001015550507f0a97a4ee45751e2abf3e4fc8946939630b11b371ea8ae39ccdc3056e98f5cc3f600060016040516115ba929190612ac3565b60405180910390a150565b6115cd611ae4565b600160058111156115e1576115e0611eea565b5b600260009054906101000a900460ff16600581111561160357611602611eea565b5b14611643576040517f08c379a000000000000000000000000000000000000000000000000000000000815260040161163a90612bf0565b60405180910390fd5b60028060006101000a81548160ff0219169083600581111561166857611667611eea565b5b02179055507f0a97a4ee45751e2abf3e4fc8946939630b11b371ea8ae39ccdc3056e98f5cc3f600160026040516116a0929190612ac3565b60405180910390a1565b6116b2611c6c565b600460003373ffffffffffffffffffffffffffffffffffffffff1673ffffffffffffffffffffffffffffffffffffffff16815260200190815260200160002060000160009054906101000a900460ff16611741576040517f08c379a000000000000000000000000000000000000000000000000000000000815260040161173890612600565b60405180910390fd5b600460008373ffffffffffffffffffffffffffffffffffffffff1673ffffffffffffffffffffffffffffffffffffffff1681526020019081526020016000206040518060600160405290816000820160009054906101000a900460ff161515151581526020016000820160019054906101000a900460ff161515151581526020016001820154815250509050919050565b6117da611ae4565b600260058111156117ee576117ed611eea565b5b600260009054906101000a900460ff1660058111156118105761180f611eea565b5b14611850576040517f08c379a000000000000000000000000000000000000000000000000000000000815260040161184790612c82565b60405180910390fd5b6003600260006101000a81548160ff0219169083600581111561187657611875611eea565b5b02179055507f0a97a4ee45751e2abf3e4fc8946939630b11b371ea8ae39ccdc3056e98f5cc3f600260036040516118ae929190612ac3565b60405180910390a1565b6118c0611ae4565b600073ffffffffffffffffffffffffffffffffffffffff168173ffffffffffffffffffffffffffffffffffffffff160361192f576040517f08c379a000000000000000000000000000000000000000000000000000000000815260040161192690612d14565b60405180910390fd5b61193881611b62565b50565b611943611ae4565b6000600581111561195757611956611eea565b5b600260009054906101000a900460ff16600581111561197957611978611eea565b5b146119b9576040517f08c379a00000000000000000000000000000000000000000000000000000000081526004016119b090612da6565b60405180910390fd5b60011515600460008373ffffffffffffffffffffffffffffffffffffffff1673ffffffffffffffffffffffffffffffffffffffff16815260200190815260200160002060000160009054906101000a900460ff16151503611a4f576040517f08c379a0000000000000000000000000000000000000000000000000000000008152600401611a4690612e12565b60405180910390fd5b6001600460008373ffffffffffffffffffffffffffffffffffffffff1673ffffffffffffffffffffffffffffffffffffffff16815260200190815260200160002060000160006101000a81548160ff0219169083151502179055507fb6be2187d059cc2a55fe29e0e503b566e1e0f8c8780096e185429350acffd3dd81604051611ad99190611ecf565b60405180910390a150565b611aec611c26565b73ffffffffffffffffffffffffffffffffffffffff16611b0a6110b8565b73ffffffffffffffffffffffffffffffffffffffff1614611b60576040517f08c379a0000000000000000000000000000000000000000000000000000000008152600401611b5790612e7e565b60405180910390fd5b565b60008060009054906101000a900473ffffffffffffffffffffffffffffffffffffffff169050816000806101000a81548173ffffffffffffffffffffffffffffffffffffffff021916908373ffffffffffffffffffffffffffffffffffffffff1602179055508173ffffffffffffffffffffffffffffffffffffffff168173ffffffffffffffffffffffffffffffffffffffff167f8be0079c531659141344cd1fd0a4f28419497f9722a3daafe3b4186f6b6457e060405160405180910390a35050565b600033905090565b604051806040016040528060608152602001600081525090565b5080546000825560020290600052602060002090810190611c699190611c91565b50565b6040518060600160405280600015158152602001600015158152602001600081525090565b5b80821115611cbc5760008082016000611cab9190611cc0565b600182016000905550600201611c92565b5090565b508054611ccc906122f4565b6000825580601f10611cde5750611cfd565b601f016020900490600052602060002090810190611cfc9190611d00565b5b50565b5b80821115611d19576000816000905550600101611d01565b5090565b600080fd5b600080fd5b6000819050919050565b611d3a81611d27565b8114611d4557600080fd5b50565b600081359050611d5781611d31565b92915050565b600060208284031215611d7357611d72611d1d565b5b6000611d8184828501611d48565b91505092915050565b600080fd5b600080fd5b600080fd5b60008083601f840112611daf57611dae611d8a565b5b8235905067ffffffffffffffff811115611dcc57611dcb611d8f565b5b602083019150836001820283011115611de857611de7611d94565b5b9250929050565b60008060208385031215611e0657611e05611d1d565b5b600083013567ffffffffffffffff811115611e2457611e23611d22565b5b611e3085828601611d99565b92509250509250929050565b60068110611e4957600080fd5b50565b600081359050611e5b81611e3c565b92915050565b600060208284031215611e7757611e76611d1d565b5b6000611e8584828501611e4c565b91505092915050565b600073ffffffffffffffffffffffffffffffffffffffff82169050919050565b6000611eb982611e8e565b9050919050565b611ec981611eae565b82525050565b6000602082019050611ee46000830184611ec0565b92915050565b7f4e487b7100000000000000000000000000000000000000000000000000000000600052602160045260246000fd5b60068110611f2a57611f29611eea565b5b50565b6000819050611f3b82611f19565b919050565b6000611f4b82611f2d565b9050919050565b611f5b81611f40565b82525050565b6000602082019050611f766000830184611f52565b92915050565b600081519050919050565b600082825260208201905092915050565b60005b83811015611fb6578082015181840152602081019050611f9b565b60008484015250505050565b6000601f19601f8301169050919050565b6000611fde82611f7c565b611fe88185611f87565b9350611ff8818560208601611f98565b61200181611fc2565b840191505092915050565b61201581611d27565b82525050565b600060408301600083015184820360008601526120388282611fd3565b915050602083015161204d602086018261200c565b508091505092915050565b60006020820190508181036000830152612072818461201b565b905092915050565b600081519050919050565b600082825260208201905092915050565b6000819050602082019050919050565b600060408301600083015184820360008601526120c38282611fd3565b91505060208301516120d8602086018261200c565b508091505092915050565b60006120ef83836120a6565b905092915050565b6000602082019050919050565b600061210f8261207a565b6121198185612085565b93508360208202850161212b85612096565b8060005b85811015612167578484038952815161214885826120e3565b9450612153836120f7565b925060208a0199505060018101905061212f565b50829750879550505050505092915050565b600060208201905081810360008301526121938184612104565b905092915050565b6121a481611d27565b82525050565b60006020820190506121bf600083018461219b565b92915050565b6121ce81611eae565b81146121d957600080fd5b50565b6000813590506121eb816121c5565b92915050565b60006020828403121561220757612206611d1d565b5b6000612215848285016121dc565b91505092915050565b60008115159050919050565b6122338161221e565b82525050565b60608201600082015161224f600085018261222a565b506020820151612262602085018261222a565b506040820151612275604085018261200c565b50505050565b60006060820190506122906000830184612239565b92915050565b7f4e487b7100000000000000000000000000000000000000000000000000000000600052604160045260246000fd5b7f4e487b7100000000000000000000000000000000000000000000000000000000600052602260045260246000fd5b6000600282049050600182168061230c57607f821691505b60208210810361231f5761231e6122c5565b5b50919050565b60008190508160005260206000209050919050565b60006020601f8301049050919050565b600082821b905092915050565b6000600883026123877fffffffffffffffffffffffffffffffffffffffffffffffffffffffffffffffff8261234a565b612391868361234a565b95508019841693508086168417925050509392505050565b6000819050919050565b60006123ce6123c96123c484611d27565b6123a9565b611d27565b9050919050565b6000819050919050565b6123e8836123b3565b6123fc6123f4826123d5565b848454612357565b825550505050565b600090565b612411612404565b61241c8184846123df565b505050565b5b8181101561244057612435600082612409565b600181019050612422565b5050565b601f8211156124855761245681612325565b61245f8461233a565b8101602085101561246e578190505b61248261247a8561233a565b830182612421565b50505b505050565b600082821c905092915050565b60006124a86000198460080261248a565b1980831691505092915050565b60006124c18383612497565b9150826002028217905092915050565b6124da82611f7c565b67ffffffffffffffff8111156124f3576124f2612296565b5b6124fd82546122f4565b612508828285612444565b600060209050601f83116001811461253b5760008415612529578287015190505b61253385826124b5565b86555061259b565b601f19841661254986612325565b60005b828110156125715784890151825560018201915060208501945060208101905061254c565b8683101561258e578489015161258a601f891682612497565b8355505b6001600288020188555050505b505050505050565b600082825260208201905092915050565b7f596f75277265206e6f74206120766f7465720000000000000000000000000000600082015250565b60006125ea6012836125a3565b91506125f5826125b4565b602082019050919050565b60006020820190508181036000830152612619816125dd565b9050919050565b7f566f74696e672073657373696f6e20686176656e74207374617274656420796560008201527f7400000000000000000000000000000000000000000000000000000000000000602082015250565b600061267c6021836125a3565b915061268782612620565b604082019050919050565b600060208201905081810360008301526126ab8161266f565b9050919050565b7f596f75206861766520616c726561647920766f74656400000000000000000000600082015250565b60006126e86016836125a3565b91506126f3826126b2565b602082019050919050565b60006020820190508181036000830152612717816126db565b9050919050565b7f50726f706f73616c206e6f7420666f756e640000000000000000000000000000600082015250565b60006127546012836125a3565b915061275f8261271e565b602082019050919050565b6000602082019050818103600083015261278381612747565b9050919050565b7f4e487b7100000000000000000000000000000000000000000000000000000000600052603260045260246000fd5b7f4e487b7100000000000000000000000000000000000000000000000000000000600052601160045260246000fd5b60006127f382611d27565b91507fffffffffffffffffffffffffffffffffffffffffffffffffffffffffffffffff8203612825576128246127b9565b5b600182019050919050565b60006040820190506128456000830185611ec0565b612852602083018461219b565b9392505050565b7f50726f706f73616c7320617265206e6f7420616c6c6f77656420796574000000600082015250565b600061288f601d836125a3565b915061289a82612859565b602082019050919050565b600060208201905081810360008301526128be81612882565b9050919050565b50565b60006128d56000836125a3565b91506128e0826128c5565b600082019050919050565b60006020820190508181036000830152612904816128c8565b9050919050565b82818337600083830152505050565b600061292683856125a3565b935061293383858461290b565b61293c83611fc2565b840190509392505050565b6000602082019050818103600083015261296281848661291a565b90509392505050565b7f566f7573206e6520706f7576657a20706173206e65207269656e2070726f706f60008201527f7365720000000000000000000000000000000000000000000000000000000000602082015250565b60006129c76023836125a3565b91506129d28261296b565b604082019050919050565b600060208201905081810360008301526129f6816129ba565b9050919050565b6000612a0882611d27565b9150612a1383611d27565b9250828203905081811115612a2b57612a2a6127b9565b5b92915050565b7f43757272656e7420737461747573206973206e6f7420766f74696e672073657360008201527f73696f6e20656e64656400000000000000000000000000000000000000000000602082015250565b6000612a8d602a836125a3565b9150612a9882612a31565b604082019050919050565b60006020820190508181036000830152612abc81612a80565b9050919050565b6000604082019050612ad86000830185611f52565b612ae56020830184611f52565b9392505050565b7f5265676973746572696e672070726f706f73616c732063616e7420626520737460008201527f6172746564206e6f770000000000000000000000000000000000000000000000602082015250565b6000612b486029836125a3565b9150612b5382612aec565b604082019050919050565b60006020820190508181036000830152612b7781612b3b565b9050919050565b7f5265676973746572696e672070726f706f73616c7320686176656e742073746160008201527f7274656420796574000000000000000000000000000000000000000000000000602082015250565b6000612bda6028836125a3565b9150612be582612b7e565b604082019050919050565b60006020820190508181036000830152612c0981612bcd565b9050919050565b7f5265676973746572696e672070726f706f73616c73207068617365206973206e60008201527f6f742066696e6973686564000000000000000000000000000000000000000000602082015250565b6000612c6c602b836125a3565b9150612c7782612c10565b604082019050919050565b60006020820190508181036000830152612c9b81612c5f565b9050919050565b7f4f776e61626c653a206e6577206f776e657220697320746865207a65726f206160008201527f6464726573730000000000000000000000000000000000000000000000000000602082015250565b6000612cfe6026836125a3565b9150612d0982612ca2565b604082019050919050565b60006020820190508181036000830152612d2d81612cf1565b9050919050565b7f566f7465727320726567697374726174696f6e206973206e6f74206f70656e2060008201527f7965740000000000000000000000000000000000000000000000000000000000602082015250565b6000612d906023836125a3565b9150612d9b82612d34565b604082019050919050565b60006020820190508181036000830152612dbf81612d83565b9050919050565b7f416c726561647920726567697374657265640000000000000000000000000000600082015250565b6000612dfc6012836125a3565b9150612e0782612dc6565b602082019050919050565b60006020820190508181036000830152612e2b81612def565b9050919050565b7f4f776e61626c653a2063616c6c6572206973206e6f7420746865206f776e6572600082015250565b6000612e686020836125a3565b9150612e7382612e32565b602082019050919050565b60006020820190508181036000830152612e9781612e5b565b905091905056fea264697066735822122054590e0d34c5e4c35c01edebd6a1e426859031bc081642a0ab37fe514cd53e5a64736f6c63430008130033",
  "immutableReferences": {},
  "source": "// SPDX-License-Identifier: MIT\n\npragma solidity 0.8.19;\nimport \"./Voting.sol\";\n\n\ncontract VotingMock is Voting {\n    constructor() {\n        // Initialize voters mapping\n        // Add accounts 1 to 5 from Ganache test accounts\n        voters[0x8858db2541A6127277494b1B402115567e942d52] = Voter(false, false, 0);\n        voters[0xa5e7bcc085F059ba3F6EC2A62Aec0521D9b3015d] = Voter(false, false, 0);\n        voters[0x56F4E98e0335f169C5B318197E1ED5d9165D14cc] = Voter(false, false, 0);\n        voters[0x5bA9D25e32e165c67c60Fd3C8eDcbFA7f8Cd9130] = Voter(false, false, 0);\n        voters[0xBC784BFBD5b43Ad5030a6367dE49CA5B6E312d93] = Voter(false, false, 0);\n    }\n\n    function setWorkflowStatus(WorkflowStatus _status) external onlyOwner {\n        workflowStatus = _status;\n    }\n\n    function getProposalArray() external view onlyOwner returns (Proposal[] memory) {\n        return proposalsArray;\n    }\n\n    function setSampleProposals() external onlyOwner {\n        proposalsArray.push(Proposal(\"This a first description\", 0));\n        proposalsArray.push(Proposal(\"This a second description\", 0));\n        proposalsArray.push(Proposal(\"This a third description\", 0));\n        proposalsArray.push(Proposal(\"This a fourth description\", 0));\n        proposalsArray.push(Proposal(\"This a fifth description\", 0));\n    }\n\n    function setSampleProposalsForTallyingVotes() external onlyOwner {\n        delete proposalsArray;\n        proposalsArray.push(Proposal(\"GENESIS\", 0));\n        proposalsArray.push(Proposal(\"This a first description\", 1));\n        proposalsArray.push(Proposal(\"This a second description\", 4));\n        proposalsArray.push(Proposal(\"This a third description\", 3));\n        proposalsArray.push(Proposal(\"This a fourth description\", 7));\n        proposalsArray.push(Proposal(\"This a fifth description\", 0));\n    }\n}",
  "sourcePath": "/Users/wassim/Projects/Solidity/Workspace/alyra-graded-projects/alyra-project2/contracts/VotingMock.sol",
  "compiler": {
    "name": "solc",
    "version": "0.8.19+commit.7dd6d404.Emscripten.clang"
  },
  "schemaVersion": "3.4.11",
  "updatedAt": "2023-02-27T21:53:15.020Z",
  "networkType": "ethereum",
  "devdoc": {
    "kind": "dev",
    "methods": {
      "owner()": {
        "details": "Returns the address of the current owner."
      },
      "renounceOwnership()": {
        "details": "Leaves the contract without owner. It will not be possible to call `onlyOwner` functions anymore. Can only be called by the current owner. NOTE: Renouncing ownership will leave the contract without an owner, thereby removing any functionality that is only available to the owner."
      },
      "transferOwnership(address)": {
        "details": "Transfers ownership of the contract to a new account (`newOwner`). Can only be called by the current owner."
      }
    },
    "version": 1
  },
  "userdoc": {
    "kind": "user",
    "methods": {},
    "version": 1
  }
}